:020000040800F2
:10000000C0070020350200084717000861150008E6
:10001000451700082B040008351B000800000000ED
:100020000000000000000000000000004B17000866
:100030008F04000800000000491700084D17000851
:100040004F0200084F0200084F0200084F0200084C
:100050004F0200084F0200084F0200084F0200083C
:100060004F0200084F0200084F0200084F0200082C
:100070004F0200084F0200084F0200084F0200081C
:100080004F0200084F0200084F0200080000000065
:1000900000000000000000000000000091040008C3
:1000A0004F0200084F0200084F0200084F020008EC
:1000B0004F0200084F0200084F0200084F020008DC
:1000C0004F0200084F0200084F0200084F020008CC
:1000D0004F0200084F0200084F0200080000000015
:1000E0004F0200084F0200084F0200080000000005
:1000F0000000000000000000000000002D040008C7
:10010000000000004F0200084F0200084F020008E4
:1001100000000000000000000000000000000000DF
:100120004F0200084F0200084F0200084F0200086B
:100130004F02000800000000000000000000000066
:100140000000000000000000000000004F02000856
:100150004F0200084F0200084F0200084F0200083B
:100160004F0200084F0200080000000000000000DD
:10017000000000000000000000000000000000007F
:10018000000000004F020008000000000000000016
:100190004F02000800F002F800F03CF80AA090E8D6
:1001A000000C82448344AAF10107DA4501D100F032
:1001B00031F8AFF2090EBAE80F0013F0010F18BFC3
:1001C000FB1A43F001031847301B0000501B0000CE
:1001D000103A24BF78C878C1FAD8520724BF30C873
:1001E00030C144BF04680C60704700000023002445
:1001F00000250026103A28BF78C1FBD8520728BF37
:1002000030C148BF0B6070471FB501F05FFD1FBDD7
:1002100010B510BD00F0D0F81146FFF7F5FF01F062
:100220009DFC00F0EEF803B4FFF7F2FF03BC00F012
:10023000F5F800000948804709480047FEE7FEE757
:10024000FEE7FEE7FEE7FEE7FEE7FEE7FEE7FEE786
:1002500004480549054A064B70470000F517000899
:1002600095010008C0010020C0070020C003002045
:10027000C003002053EA020C00F069802DE9F04B26
:100280004FF00006002B1FBFB3FA83F503FA05F405
:1002900024FA05F65E4012BF1643B2FA82F502FA5E
:1002A00005F4C5F120051EBF22FA05FC44EA0C0442
:1002B000203556EA044C4FEA144418BF641C4FF032
:1002C00000084FF00009904271EB030C39D300296C
:1002D00019BFB1FA81F701FA07F6B0FA80F700FA10
:1002E00007F6C7F120071EBF20FA07FC46EA0C06F6
:1002F0002037B6FBF4FCA7EB0507103F07F01F0BF8
:10030000CBF120062CFA06F60CFA0BFB44BFB346E1
:100310000026202FA4BF5E464FF0000B5BEA060CC0
:1003200008BF4FF0010B19EB0B0948EB0608ABFBBC
:10033000027C06FB02CC0BFB03CCC01B71EB0C0157
:10034000C1E70B46024641464846BDE8F08B13B56F
:10035000084318BF4FF0FF300146AFF30080BDE8FF
:100360001C4070474FF0000200B513469446964675
:10037000203922BFA0E80C50A0E80C50B1F12001B8
:10038000BFF4F7AF090728BFA0E80C5048BF0CC066
:100390005DF804EB890028BF40F8042B08BF7047C4
:1003A00048BF20F8022B11F0804F18BF00F8012B36
:1003B0007047704770477047754600F02BF8AE469F
:1003C00005006946534620F00700854618B020B561
:1003D000FFF73EFFBDE820404FF000064FF000075A
:1003E0004FF000084FF0000BAC46ACE8C009ACE899
:1003F000C009ACE8C009ACE8C00921F007018D468E
:10040000704710B50446AFF300802046BDE81040A9
:10041000FFF709BF0048704740000020014918203D
:10042000ABBEFEE7260002007047FEE7014800F081
:1004300037B800BFC800002010B501686FF00F0288
:10044000182308A452FA81F2B2FBF3F35F2AE35CAB
:1004500040F2FF3421EA040188BF0431C0E91613D9
:10046000084610BD0006101600061016B0B5046848
:10047000806825684028084625F48025256063604B
:1004800008BF1046A06008BF0A46E260B0BD7047D2
:100490004FF4807000F0B0B9EFF3108072B6FEE751
:1004A000F8B504460020594A08210090D4E91660A6
:1004B00015683768814039420CD0226813685B07A1
:1004C00008D5136823F004031360B160616D41F037
:1004D0000101616501218140394208D022685269D9
:1004E000120604D5B160616D41F00201616504211D
:1004F0008140394208D022681268920704D5B16061
:10050000616D41F00401616510218140394217D0CD
:1005100020680268120713D5B160026801685203AF
:1005200006D4C90506D4016821F00801016001E084
:10053000080301D4216C00E0A16C09B12046884772
:10054000E16D202000FA01F23A423BD020680368B6
:10055000DB0637D5B26094F835300268052B19D127
:1005600022F016020260426922F080024261226C8F
:100570000AB9A26C1AB1026822F0080202603F2098
:100580008840B060002084F83400012084F83500F1
:10059000216D37E0016852030CD4C9050ED40168FF
:1005A00021F010010160002084F83400012084F85B
:1005B000350003E0080301D4616C00E0E16B09B190
:1005C00020468847606D00B3606DC00719D00521D3
:1005D0004FF4165084F83510B5FBF0F021680A6826
:1005E00022F001020A60009A01328242009202D88F
:1005F0000A68D207F7D1002084F83400012084F87B
:100600003500E16C09B120468847F8BD380000206C
:100610002DE9F041044600F0E1F9ACB105460220B5
:1006200084F835000020216884F83400086820F040
:10063000010008600868C00709D000F0CFF9401B2E
:10064000052838D82168F5E70120BDE8F081086861
:10065000271D344AE8CF00EA020ED4E9050CD4E99C
:10066000072843EA0E032B4333433B431843636A93
:1006700040EA0C001043042B40EA08021FD1D4E9E1
:100680000A53206B1A4340EA0200086051F8140F25
:1006900020F0030040EA050040F00402B3B1BCF5CD
:1006A000005F24D0BCF1000F31D1022D32D0012DDA
:1006B00027D0002D2DE003262027032012E00A601A
:1006C00051F8140F20F0070040EA030220460A60A8
:1006D000FFF7B2FEE16D3F220027012602FA01F189
:1006E00081600020676584F83560BDE8F081032DE6
:1006F000ECD8012640270120DFE805F0020C0203B8
:10070000F0E7A3F1C070B0FA80F0400904E0032DD7
:1007100004D3DBD1C3F300600028D7D001264027E3
:100720000120DFE73F8010F0B0B5044690F83400B8
:10073000012828D00120A56D84F8340094F83500F4
:1007400001281DD1022084F8350000206065204674
:10075000FFF78CFEE26D3F232068216C03FA02F262
:10076000AA60026842F01602026019B1016841F005
:1007700008010160016841F0010101600020B0BD85
:10078000002084F834000220B0BD0000B0B504465B
:1007900000F024F90546B348611C007818BF0444F2
:1007A00000F01CF9401BA042FAD3B0BD10B5B0F563
:1007B000807F1AD10D4800220068416A42620C48CD
:1007C0008BB241805C09182C9CBF427010BD40F672
:1007D0009902934201D3002106E04278072A04D807
:1007E000044B23F81210511C417010BD7001002001
:1007F000A00000200000002003490A68024208BF50
:1008000070470860FFF7D2BF143C01402DE9FC4F50
:10081000654A07244FF0010B4FF000094FF0000A22
:100820009042624A08BF042402444FEAB223042BD8
:100830004FF0000338BF4FEAB2240094202B08BFCA
:10084000BDE8FC8F0F680BFA0AF6374200F0A5806E
:100850004F6807F00308A8F10104012C18D80322FF
:1008600085684FEA4A0E02FA03F425EA040CCD68C3
:100870009D4045EA0C058560C7F3001505FA0AFCA2
:100880004568B54345EA0C056FEA040C45600CE089
:100890000324B8F1030F9E4604FA03F46FEA040C34
:1008A00003D19E464FF0030821E0C4688D68B8F17B
:1008B000020F04EA0C0405FA0EF544EA0504C460CC
:1008C00015D109F01C040F2202FA04F86FF003029C
:1008D00002EA5A0707443D6A25EA08080D6905FA45
:1008E00004F444EA08043C624F6807F00308056812
:1008F00008FA0EF417F4403F05EA0C0544EA050433
:1009000004604AD000222AF0030701922A4A1468A0
:1009100044F48044146014680F2204F48044019469
:1009200009F00C0402FA04FC214A019D9646174482
:10093000224ABD589046009A25EA0C0502FA04F4B2
:100940002C4347F80840DEF808404F68FA0244EAB2
:100950000605184A58BF24EA0605CEF80850BD021D
:100960009446126842EA060458BF22EA0604CCF80C
:100970000040BD03DEF8042042EA060458BF22EA24
:100980000604CEF80440FD03DEF8002042EA060427
:1009900058BF22EA0604CEF8004009F104090233E8
:1009A0000AF1010A4AE700BF001002400000FEBF42
:1009B000003C01400C3C01404438024008FCFFFF71
:1009C000426902EA0103914341EA034181617047B0
:1009D000002A08BF090481617047000005480068CB
:1009E000704700BF1F48034900780A681044086038
:1009F000704700BFB801002080B50B48016841F482
:100A000000710160016841F480610160016841F496
:100A100080710160032000F06DF80F2000F006F8EF
:100A200000F022F8002080BD003C024070B50D4E61
:100A300004464FF47A713078B1FBF0F07D490968D3
:100A4000B1FBF0F000F0C4FA01250F2C08D838B93A
:100A50004FF0FF3021460022002500F02FF874608F
:100A6000284670BD3000002082B000200B49019064
:100A70004A6842F480424A604A6802F48042019225
:100A8000019A0090086840F080500860086800F003
:100A900080500090009802B0704700BF403802407C
:100AA000002808D400F01F010122400902FA01F1D8
:100AB000014A42F82010704700E100E070B5134B86
:100AC0004FF0FF351B68C3F30223DC1E83F00703DE
:100AD00038BF0024042B28BF042305FA04F605FAC6
:100AE00003F3B2439943A1401143BDE8704001F0C4
:100AF00023B800BF05494FF6FF030A681A4060F3A8
:100B00000A22034810430860704700BF0CED00E064
:100B10000000FA052DE9F041002860D0434B04465F
:100B20008846D3F8000400F00700884207D283F813
:100B30000084D3F8000400F0070040454FD120683E
:100B4000810711D5410703D5996841F4E0519960B7
:100B5000010703D5996841F460419960A1689A68DA
:100B600022F0F00211439960C00731D1D3F800049C
:100B700000F00700404507D983F80084D3F800044B
:100B800000F0070040452AD12068410705D5E168FB
:100B90009A6822F4E05211439960000706D5206953
:100BA000996821F4604141EAC00098601C4600F059
:100BB00045F8A1681E4AC1F30311515CC8401D49A4
:100BC00008601D480068FFF731FF0020BDE8F08194
:100BD0006068811E022905D21968890107D40120A5
:100BE000BDE8F08101281DD119688903F7D59968FE
:100BF0001D4621F0030108439860FFF7EFFE06460B
:100C000041F288376068A9682B4601F00C01B1EB0E
:100C1000800FABD0FFF7E2FE801BB842F2D9032071
:100C2000BDE8F08119688907D9D5E0E700380240AE
:100C3000E61C0008380000203400002010B5134CDA
:100C4000606800F00C00082804D0042814BF104885
:100C5000104810BD226820680023400202F03F02C5
:100C60000C485CBF42F20040C0F2F4002168C1F3BE
:100C70008811A0FB0101FFF7FDFA21680222C1F3F0
:100C8000014102EB4101B0FBF1F010BD043802401C
:100C90000024F40040787D012DE9FC41002864D057
:100CA00004460078C74EC0070BD0B06800F00C00B7
:100CB000042840F097803068800302D560680028DF
:100CC00053D0207880071AD5B06810F00C0F09D0E7
:100CD000B06800F00C00082840F0AA80706840025C
:100CE00000F1A6803068800702D5E06801283CD179
:100CF0002069316821F0F80141EAC00030602078B5
:100D0000000735D42078400746D4A76957B3B068A8
:100D100000F00C00082840F0CB80012F25D0E169BD
:100D2000706800F480028A421FD1216A00F03F02FD
:100D30008A421AD147F6C071626A0140B1EB821F44
:100D400013D1A16A4FF6FF72C903914300F44032F8
:100D5000A1F580318A4208D1E16A00F07060B0EB01
:100D6000016F02D10020BDE8FC810120BDE8FC81BB
:100D700061699548002900F089800121C0F8801E32
:100D8000FFF72CFE0546706F8007BBD4FFF726FEE9
:100D9000401B0228F7D988E0306C4FF00008C000F3
:100DA0000CD4CDF804804FF00108306C40F0805036
:100DB0003064306C00F0805001900198834F3868A7
:100DC000C00548D4386840F480703860FFF706FEEC
:100DD00005463868C0053ED4FFF700FE401B0228D8
:100DE000F7D962E0B06800F00C00082803D1706801
:100DF00040023FF560AF6768B7F5803F07D03068C5
:100E0000B7F5A02F40F0A58040F480203060306816
:100E100040F480303060FFF7E1FD05463068800324
:100E20003FF54FAFFFF7DAFD401B6428F6D93CE0F1
:100E3000E06800285BD0644801210160FFF7CEFD27
:100E40000546306880073FF553AFFFF7C7FD401BED
:100E50000228F6D929E0A768012F05D0306F052FA9
:100E600056D140F004003067306F40F00100306729
:100E7000FFF7B4FD054641F28837306F80075FD435
:100E8000FFF7ACFD401BB842F7D90EE00021C0F8D7
:100E9000801EFFF7A3FD0546706F80077FF532AF18
:100EA000FFF79CFD401B0228F6D90320BDE8FC811A
:100EB0004549002088460866FFF790FD0546022F49
:100EC0000AD14746306880015CD5FFF787FD411B9A
:100ED00003200229F6D946E7306880017FF542AF4A
:100EE000FFF77CFD411B03200229F5D93BE736487B
:100EF00000210160FFF772FD0546306880077FF52D
:100F0000FEAEFFF76BFD411B03200229F5D92AE74E
:100F100020F001003067306F20F004003067FFF7E9
:100F20005DFD0546002FA6D141F28837306F80075E
:100F300006D5FFF753FD411B0320B942F6D912E74E
:100F4000B8F1000F3FF4E1AE306C20F08050306417
:100F5000DBE620F480303060306820F480203060A0
:100F6000FFF73CFD0546002F7FF458AF06E0FFF782
:100F700035FD411B032064293FF6F5AE3068800340
:100F8000F5D49EE61C341FCC0843D90340EA8210F6
:100F90004FF6FF72914340EA0460A1F580310843A7
:100FA000706001203866FFF719FD04463068800143
:100FB0003FF5D8AEFFF712FD011B03200229F5D93A
:100FC000D1E600BF003802400000474200700040F8
:100FD000411E0020B0EB116F1CBF01207047044A76
:100FE000F023516003490B70072190601160704736
:100FF00010E000E023ED00E010B590F83C30022254
:10100000012B2AD080F83D20012280F83C20026884
:101010000B685468B2F1804F24F0700444EA030472
:10102000936854600ED0B54CA2420BD05E4CA242E5
:1010300008D05E4CA24205D05D4CA24202D05D4C6D
:10104000A24204D1496823F0800319439160002231
:10105000012180F83C2080F83D10104610BD00BFF3
:1010600040B310B5044690F83D0028B9002084F83C
:101070003C00204600F020F80220211D84F83D00AD
:10108000206800F0BFFB012084F8460084F83E0091
:1010900084F83F0084F8400084F8410084F842005E
:1010A00084F8430084F8440084F8450084F83D0047
:1010B000002010BD012070472DE9FC410446006866
:1010C0003949884233D08D4988423CD100211F489C
:1010D0001F4D204E4FF020634FF4807C4FF480670B
:1010E0004FF4005E4FF400680191026842F0020282
:1010F00002604FF44032C5E908214022C5E900638F
:10110000C5E9022105F1100181E88041C5F81CC044
:10111000006800F00200019001982846FFF778FA75
:1011200008B1FFF7B9F9E562AC63BDE8FC810020C6
:1011300000900648016841F004010160006800F079
:10114000040000900098BDE8FC8100BF40380240D8
:10115000C8000020B860024090F83D1001291CBF73
:1011600001207047022180F83D100068B0F1804FE7
:101170000ED0F64988420BD0F549884208D0F5498F
:10118000884205D0F449884202D0EF49884204D110
:10119000816801F00701062903D0016841F00101CF
:1011A00001600020704700BF00080040000C0040B4
:1011B000004001400000014010B590F83C2004467A
:1011C0000220012A70D084F83D0001204FF6777389
:1011D00084F83C00206882689A4382600A6812B3EF
:1011E000102A20D0202A1ED0302A1CD0402A21D0FC
:1011F000502A2BD0602A35D0B2F5005F3ED0B2F530
:10120000805F4AD0702A50D1D1E90123C9681A43BE
:1012100042EA0121826822F47F42114381608168A1
:1012200041F0770138E0816821F07001114341F00D
:10123000070131E04B68CA68194600F059FC206884
:10124000816841F0470121F0300125E04B68CA6810
:10125000194600F04DFC2068816841F0570121F0EB
:10126000200119E04B68CA68194600F052FC20685A
:10127000816841F0670121F010010DE0D1E90123FF
:10128000C9681A4342EA0121826822F47F4211436D
:101290008160816841F4804181600020002184F8F0
:1012A0003C10012184F83D1010BD0120F6E7704785
:1012B00010B586B0044601A81421FFF753F8216841
:1012C000A248814217D10021DD4A00F5003000918B
:1012D000136843F002031360126802F002020092E6
:1012E0000222CDE90412CDE90221012101910099E8
:1012F00001A9FFF78BFA06B010BD00BF0004004043
:1013000010B5044690F83C00012804BF022010BD2F
:101310004FEAB2020120032A84F83C0013D8DFE828
:1013200002F002060A0E206800F044FB0AE0206882
:1013300000F066FB06E0206800F08EFB02E020680B
:1013400000F0B4FB0020002184F83C1010BD40B335
:1013500010B5044690F83D0028B9002084F83C0000
:10136000204600F020F80220211D84F83D0020686E
:1013700000F048FA012084F8460084F83E0084F822
:101380003F0084F8400084F8410084F8420084F86B
:10139000430084F8440084F8450084F83D000020B0
:1013A00010BD01207047704770B50D46044641B12D
:1013B000082D09D0042D14BF04F1410004F13F00B1
:1013C00004E004F13E0001E004F14000007802284E
:1013D00004BF022070BD45B1082D09D0042D14BFF3
:1013E00004F1410004F13F0004E004F13E0001E09B
:1013F00004F140000078012801D112B90BB101209D
:1014000070BD022045B1082D09D0042D14BF84F809
:10141000410084F83F0004E084F83E0001E084F8D5
:1014200040004FEAB5000328E9D8DFE800F00218D1
:101430002E44606A414E2168C663414E606A06646C
:10144000404E606AC66401F134061146606A324655
:10145000FFF76AF90028D2D14FF4007141E0A06A89
:10146000364E2168C663364EA06A0664354EA06AC1
:10147000C66401F138061146A06A3246FFF754F9F6
:101480000028BCD14FF480612BE0E06A2B4E21682C
:10149000C6632B4EE06A06642A4EE06AC66401F118
:1014A0003C061146E06A3246FFF73EF90028A6D115
:1014B0004FF4006115E0206B204E2168C663204E7A
:1014C000206B06641F4E206BC66401F14006114676
:1014D000206B3246FFF728F900287FF490AF4FF4D5
:1014E00080512068C26811430122C160294600F082
:1014F000D9F92068E449884203D14A6C42F4004299
:101500004A64B0F1804F0DD0E04A90420AD0E04AE0
:10151000904207D0DF4A904204D0DF4A904201D087
:10152000884204D1816801F00701062903D00168CF
:1015300041F001010160002070BD00BFC318000828
:10154000271900085F19000800000140000400404E
:1015500000080040000C0040004001407047704708
:10156000FEE70000E0B50020002201903448016849
:1015700041F4001101600121006800F400100190A5
:1015800001982F20FFF79AFA2F20BDE88C40FFF733
:1015900087BA00BF70B586B000262948294C0022C2
:1015A0004FF4005505960096016841F00401016072
:1015B000016801F00401009100990096016841F072
:1015C00080010160016801F080010091009900969E
:1015D000016841F002010160016801F0020100911F
:1015E00000990096016841F0010101604FF400513B
:1015F000006800F00100009000982046FFF7E8F92D
:101600000120CDE90366CDE9015001AD2046294610
:10161000FFF7FCF84FF404102946039602904FF4AC
:1016200080700190A4F50060FFF7F0F81720022108
:101630000022FFF743FA1720FFF732FA06B070BD19
:10164000303802400008024010B58EB0002401A8D6
:101650001C21CDE90C44CDE90A44CDE90844FEF74C
:1016600081FE1E48894B44F61F6153228461C0E904
:101670000032C0E902410461FFF7F2FC08B1FEF755
:101680000BFF4FF480500AA90A901448FFF794FD0D
:1016900008B1FEF701FF1148FFF759FE08B1FEF748
:1016A000FBFE0E48002408A9CDE90844FFF7A4FC7E
:1016B00008B1FEF7F1FE0220059401A90822CDE948
:1016C0000240302001900548FFF71AFE08B1FEF7EE
:1016D000E3FE0248FFF7ECFD0EB010BD280100202C
:1016E00010B586B016488021694C4FF6FF7253231F
:1016F00081610021C0E90043C0E90212CDE9041173
:101700000161CDE90211CDE90011FFF7A9FC08B193
:10171000FEF7C2FE4FF4805002A902900848FFF77E
:101720004BFD08B1FEF7B8FE00206946CDE9000088
:101730000348FFF761FC08B1FEF7AEFE06B010BD2E
:1017400070010020FEE7FEE770477047FFF74AB9D7
:10175000B0B592B0002401A81421CDE90A44CDE926
:101760000844FEF7FFFD214800940225016841F07E
:1017700080510160006800F0805000900098009453
:101780001B48016865F38F310160006800F4404038
:1017900000900420CDE91050A8200F9019200E9041
:1017A0004FF48000CDE90C504FF4803007900120B9
:1017B0000690009806A8FFF76FFA18B1EFF31080B3
:1017C00072B6FEE74FF4805005940221CDE9034044
:1017D0000F20CDE9010501A8FFF79CF918B1EFF33F
:1017E000108072B6FEE712B0B0BD00BF40380240B4
:1017F000007000400248016841F4700101607047C8
:1018000088ED00E070B50368B84AB0F1804F07D0AA
:101810001E4CA04204D01E4CA04218BF90422FD1B3
:101820004C6823F070032343B0F1804F13D0174C62
:10183000A04210D0164CA0420DD0164CA0420AD0A7
:10184000904208D0144CA04205D0144CA04202D0C3
:10185000134CA04203D1CC6823F4407323434E6958
:1018600023F080030C688D68904243EA060303600E
:10187000C562846201D1096911630121416170BDB2
:10188000044CA042CCD0CFE700000140000400404F
:1018900000080040000C00400040014000480140AA
:1018A0000044014010B501F01F010123046A8B4080
:1018B00002FA01F124EA03030362026A114301629E
:1018C00010BD10B5846B616A814210D0A16A81425B
:1018D00014D0E16A814219D0216B81421DD1C069C7
:1018E00008212177C8B9012084F8410015E0C069BA
:1018F0000121217788B984F83E100EE0C0690221E9
:10190000217750B9012084F83F0006E0C069042126
:10191000217710B9012084F840002046FFF71EFE11
:101920000020207710BD10B5846B616A81420AD017
:10193000A16A814209D0E16A814208D0216B8142CB
:1019400007D1082004E0012002E0022000E004208A
:1019500020772046FFF703FE0020207710BD10B54A
:10196000846B616A814211D0A16A814212D0E16A1E
:10197000814214D0216B81424FF0010011BF84F8E5
:101980003D0084F84100082020770DE0012084F814
:101990003E0008E0012084F83F00022003E001201F
:1019A00084F84000042020772046FFF780FC0020C8
:1019B000207710BDF0B5026A22F0010202620B68C6
:1019C0008A68046A24F0020422434468856925F089
:1019D00073052B43454DA8420BD1CD68D1E905676E
:1019E00024F4407422F00C02344325F004053C43F7
:1019F0002A4344608361496841630262F0BD00BFCD
:101A0000F0B5026A22F0100202620B688A68046A6A
:101A100024F0200444EA02124468856925F4E6456E
:101A200045EA0323314DA8420FD1D1E9056724F4DB
:101A30004064CD6822F0C00244EA86046FF040069C
:101A400006EA051544EA87042A434460836149682D
:101A500081630262F0BD00BFF0B5026A22F48072B9
:101A600002620B688A68046A24F4007444EA022261
:101A70004468C56925F073052B431C4DA8420FD15E
:101A8000CD68D1E9056724F4405422F4406244EA69
:101A900006142D0240F2FF46B54344EA07142A43D8
:101AA0004460C3614968C1630262F0BDB0B5026AB7
:101AB00022F4805202620C688A68036A23F400539D
:101AC00043EA02324368C56925F4E64545EA042441
:101AD000064DA84204D14D6923F4804343EA85139F
:101AE0004360C461496801640262B0BD0000014006
:101AF00010B5036A046A24F001040462846924F0C6
:101B0000F00444EA0212826123F00A0211430162E6
:101B100010BD036A23F010030362836923F470434A
:101B200043EA0232036A826123F0A00242EA011111
:101B300001627047FEE7000010B5074C00F00F038C
:101B4000044AB0F1FF3F2344C8BF8318080118704E
:101B500010BD00BF00E400E014ED00E0FEF74CFF14
:101B6000FFF7F6FDFFF716FDFFF7FCFCFFF76CFD36
:101B7000FFF7B6FD00F04EF8364D2348082112233A
:101B80002A1DFFF711FC2148FFF7E6FA204C4C4EC6
:101B900000274FF001087089B0F5E16F0ED9297860
:101BA00009B3B0F5E16F1CD920464FF40051FEF7A0
:101BB00007FF6420FEF7EAFD7089F2E720464FF444
:101BC00000510122FEF704FF0020082806D036F855
:101BD000102006EB400101300A82F6E700F01AF807
:101BE0000DE02F700BE020464FF400510022FEF76D
:101BF000EFFE00F03DF800F02FF885F8008014208B
:101C0000FEF7C4FDC7E700BF2801002070010020D7
:101C100000080240B0B50F484FF4C87181802849D0
:101C20000A8AC2800022072A0CD000EB8203DC88DB
:101C300004F5C8751D8101EB420501326D8A2C4403
:101C40005C81F0E744F61F61C184418C01F5C871E5
:101C50008184B0BDA000002019490020082808BFD9
:101C6000FFF7D8BF01EB40020130138C1382F5E778
:101C7000F8B5144D124C40F2DC56A682A847124F1C
:101C80004FF47A70B84740F27260A082A8474FF4D0
:101C9000FA60B847A682A84741F28830B84740F2B8
:101CA0004650A082A84740F6B830B8470020A0822E
:101CB000A8474FF47A703946BDE8F840084700BF9E
:101CC00000000020151C00088D070008F1EE100A26
:101CD0004FF6FF71C0F2C03120EA010040F04070C1
:101CE000E1EE100A70470000000000000000010251
:101CF0000304060708090000181D00080000002062
:101D000040000000D0010008581D000840000020DD
:101D100080070000EC010008DC05DC05E803DC05B9
:101D2000E803E803DC05DC05DC05DC05E803DC058D
:101D3000E803E803DC05DC05DC05DC05E803DC057D
:101D4000D007E803DC05DC050100000010000000FE
:081D50000024F4000000000073
:040000050800019559
:00000001FF
